{
    "_format": "hh-sol-artifact-1",
    "contractName": "SiteAngel",
    "sourceName": "contracts/SiteAngel.sol",
    "abi": [
        {
            "inputs": [],
            "stateMutability": "payable",
            "type": "constructor"
        },
        {
            "anonymous": false,
            "inputs": [
                {
                    "indexed": false,
                    "internalType": "string",
                    "name": "url",
                    "type": "string"
                },
                {
                    "indexed": false,
                    "internalType": "uint256",
                    "name": "tokenamount",
                    "type": "uint256"
                }
            ],
            "name": "ClaimTip",
            "type": "event"
        },
        {
            "anonymous": false,
            "inputs": [
                {
                    "indexed": false,
                    "internalType": "string",
                    "name": "url",
                    "type": "string"
                },
                {
                    "indexed": false,
                    "internalType": "uint256",
                    "name": "tokenamount",
                    "type": "uint256"
                }
            ],
            "name": "NewTip",
            "type": "event"
        },
        {
            "anonymous": false,
            "inputs": [
                {
                    "indexed": true,
                    "internalType": "address",
                    "name": "previousOwner",
                    "type": "address"
                },
                {
                    "indexed": true,
                    "internalType": "address",
                    "name": "newOwner",
                    "type": "address"
                }
            ],
            "name": "OwnershipTransferred",
            "type": "event"
        },
        {
            "anonymous": false,
            "inputs": [
                {
                    "indexed": false,
                    "internalType": "address",
                    "name": "account",
                    "type": "address"
                }
            ],
            "name": "Paused",
            "type": "event"
        },
        {
            "anonymous": false,
            "inputs": [
                {
                    "indexed": false,
                    "internalType": "address",
                    "name": "account",
                    "type": "address"
                }
            ],
            "name": "Unpaused",
            "type": "event"
        },
        {
            "stateMutability": "payable",
            "type": "fallback"
        },
        {
            "inputs": [
                {
                    "internalType": "string",
                    "name": "",
                    "type": "string"
                }
            ],
            "name": "UrlToTokenAmounts",
            "outputs": [
                {
                    "internalType": "uint256",
                    "name": "ethreum",
                    "type": "uint256"
                },
                {
                    "internalType": "uint256",
                    "name": "apecoin",
                    "type": "uint256"
                }
            ],
            "stateMutability": "view",
            "type": "function"
        },
        {
            "inputs": [
                {
                    "internalType": "string",
                    "name": "_url",
                    "type": "string"
                }
            ],
            "name": "claimEth",
            "outputs": [],
            "stateMutability": "nonpayable",
            "type": "function"
        },
        {
            "inputs": [
                {
                    "internalType": "string",
                    "name": "_url",
                    "type": "string"
                },
                {
                    "internalType": "uint256",
                    "name": "_amount",
                    "type": "uint256"
                }
            ],
            "name": "donateEth",
            "outputs": [],
            "stateMutability": "payable",
            "type": "function"
        },
        {
            "inputs": [],
            "name": "getBalance",
            "outputs": [
                {
                    "internalType": "uint256",
                    "name": "",
                    "type": "uint256"
                }
            ],
            "stateMutability": "view",
            "type": "function"
        },
        {
            "inputs": [
                {
                    "internalType": "string",
                    "name": "_url",
                    "type": "string"
                }
            ],
            "name": "getUrlEthBalance",
            "outputs": [
                {
                    "internalType": "uint256",
                    "name": "",
                    "type": "uint256"
                }
            ],
            "stateMutability": "view",
            "type": "function"
        },
        {
            "inputs": [],
            "name": "owner",
            "outputs": [
                {
                    "internalType": "address",
                    "name": "",
                    "type": "address"
                }
            ],
            "stateMutability": "view",
            "type": "function"
        },
        {
            "inputs": [],
            "name": "paused",
            "outputs": [
                {
                    "internalType": "bool",
                    "name": "",
                    "type": "bool"
                }
            ],
            "stateMutability": "view",
            "type": "function"
        },
        {
            "inputs": [],
            "name": "renounceOwnership",
            "outputs": [],
            "stateMutability": "nonpayable",
            "type": "function"
        },
        {
            "inputs": [
                {
                    "internalType": "string",
                    "name": "_url",
                    "type": "string"
                },
                {
                    "internalType": "uint256",
                    "name": "_tokenamount",
                    "type": "uint256"
                }
            ],
            "name": "setApeTokenAmounts",
            "outputs": [],
            "stateMutability": "nonpayable",
            "type": "function"
        },
        {
            "inputs": [
                {
                    "internalType": "string",
                    "name": "_url",
                    "type": "string"
                },
                {
                    "internalType": "uint256",
                    "name": "_tokenamount",
                    "type": "uint256"
                }
            ],
            "name": "setEthTokenAmounts",
            "outputs": [],
            "stateMutability": "nonpayable",
            "type": "function"
        },
        {
            "inputs": [
                {
                    "internalType": "address",
                    "name": "newOwner",
                    "type": "address"
                }
            ],
            "name": "transferOwnership",
            "outputs": [],
            "stateMutability": "nonpayable",
            "type": "function"
        },
        {
            "stateMutability": "payable",
            "type": "receive"
        }
    ],
    "bytecode": "0x608060405262000024620000186200007360201b60201c565b6200007b60201b60201c565b60008060146101000a81548160ff0219169083151502179055506200006d60405180606001604052806023815260200162001327602391396200013f60201b620006411760201c565b620002d3565b600033905090565b60008060009054906101000a900473ffffffffffffffffffffffffffffffffffffffff169050816000806101000a81548173ffffffffffffffffffffffffffffffffffffffff021916908373ffffffffffffffffffffffffffffffffffffffff1602179055508173ffffffffffffffffffffffffffffffffffffffff168173ffffffffffffffffffffffffffffffffffffffff167f8be0079c531659141344cd1fd0a4f28419497f9722a3daafe3b4186f6b6457e060405160405180910390a35050565b620001df81604051602401620001569190620002af565b6040516020818303038152906040527f41304fac000000000000000000000000000000000000000000000000000000007bffffffffffffffffffffffffffffffffffffffffffffffffffffffff19166020820180517bffffffffffffffffffffffffffffffffffffffffffffffffffffffff8381831617835250505050620001e260201b60201c565b50565b60008151905060006a636f6e736f6c652e6c6f679050602083016000808483855afa5050505050565b600081519050919050565b600082825260208201905092915050565b60005b83811015620002475780820151818401526020810190506200022a565b8381111562000257576000848401525b50505050565b6000601f19601f8301169050919050565b60006200027b826200020b565b62000287818562000216565b93506200029981856020860162000227565b620002a4816200025d565b840191505092915050565b60006020820190508181036000830152620002cb81846200026e565b905092915050565b61104480620002e36000396000f3fe6080604052600436106100a05760003560e01c806374f7817a1161006457806374f7817a146101705780637bc8f305146101995780638da5cb5b146101d6578063e316234914610201578063e7b1f4cf1461022a578063f2fde38b14610253576100a7565b806312065fe0146100a95780635c975abb146100d457806360e4749f146100ff578063656a72741461013d578063715018a614610159576100a7565b366100a757005b005b3480156100b557600080fd5b506100be61027c565b6040516100cb9190610866565b60405180910390f35b3480156100e057600080fd5b506100e9610284565b6040516100f6919061089c565b60405180910390f35b34801561010b57600080fd5b5061012660048036038101906101219190610a11565b61029a565b604051610134929190610a5a565b60405180910390f35b61015760048036038101906101529190610aaf565b6102d4565b005b34801561016557600080fd5b5061016e61036e565b005b34801561017c57600080fd5b5061019760048036038101906101929190610a11565b610382565b005b3480156101a557600080fd5b506101c060048036038101906101bb9190610a11565b610515565b6040516101cd9190610866565b60405180910390f35b3480156101e257600080fd5b506101eb610540565b6040516101f89190610b4c565b60405180910390f35b34801561020d57600080fd5b5061022860048036038101906102239190610aaf565b610569565b005b34801561023657600080fd5b50610251600480360381019061024c9190610aaf565b610593565b005b34801561025f57600080fd5b5061027a60048036038101906102759190610b93565b6105bd565b005b600047905090565b60008060149054906101000a900460ff16905090565b6002818051602081018201805184825260208301602085012081835280955050505050506000915090508060000154908060010154905082565b8034146102e057600080fd5b806002836040516102f19190610c3a565b908152602001604051809103902060000160008282546103119190610c80565b92505081905550806001600082825461032a9190610c80565b925050819055507f8c11d489d56cac11296f685702311b4a7c40a9bb0065295b41f47435e2c1ef2e8282604051610362929190610d20565b60405180910390a15050565b6103766106da565b6103806000610758565b565b60006002826040516103949190610c3a565b9081526020016040518091039020600001549050478111156103eb576040517f08c379a00000000000000000000000000000000000000000000000000000000081526004016103e290610dc2565b60405180910390fd5b60003373ffffffffffffffffffffffffffffffffffffffff168260405161041190610e13565b60006040518083038185875af1925050503d806000811461044e576040519150601f19603f3d011682016040523d82523d6000602084013e610453565b606091505b5050905080610497576040517f08c379a000000000000000000000000000000000000000000000000000000000815260040161048e90610e9a565b60405180910390fd5b81600160008282546104a99190610eba565b9250508190555060006002846040516104c29190610c3a565b9081526020016040518091039020600001819055507f152a91ed8d46146235c4e1e3e794a75fa4beaa966e88961bd161450e60940bd38383604051610508929190610d20565b60405180910390a1505050565b60006002826040516105279190610c3a565b9081526020016040518091039020600001549050919050565b60008060009054906101000a900473ffffffffffffffffffffffffffffffffffffffff16905090565b8060028360405161057a9190610c3a565b9081526020016040518091039020600001819055505050565b806002836040516105a49190610c3a565b9081526020016040518091039020600101819055505050565b6105c56106da565b600073ffffffffffffffffffffffffffffffffffffffff168173ffffffffffffffffffffffffffffffffffffffff161415610635576040517f08c379a000000000000000000000000000000000000000000000000000000000815260040161062c90610f60565b60405180910390fd5b61063e81610758565b50565b6106d7816040516024016106559190610f80565b6040516020818303038152906040527f41304fac000000000000000000000000000000000000000000000000000000007bffffffffffffffffffffffffffffffffffffffffffffffffffffffff19166020820180517bffffffffffffffffffffffffffffffffffffffffffffffffffffffff838183161783525050505061081c565b50565b6106e2610845565b73ffffffffffffffffffffffffffffffffffffffff16610700610540565b73ffffffffffffffffffffffffffffffffffffffff1614610756576040517f08c379a000000000000000000000000000000000000000000000000000000000815260040161074d90610fee565b60405180910390fd5b565b60008060009054906101000a900473ffffffffffffffffffffffffffffffffffffffff169050816000806101000a81548173ffffffffffffffffffffffffffffffffffffffff021916908373ffffffffffffffffffffffffffffffffffffffff1602179055508173ffffffffffffffffffffffffffffffffffffffff168173ffffffffffffffffffffffffffffffffffffffff167f8be0079c531659141344cd1fd0a4f28419497f9722a3daafe3b4186f6b6457e060405160405180910390a35050565b60008151905060006a636f6e736f6c652e6c6f679050602083016000808483855afa5050505050565b600033905090565b6000819050919050565b6108608161084d565b82525050565b600060208201905061087b6000830184610857565b92915050565b60008115159050919050565b61089681610881565b82525050565b60006020820190506108b1600083018461088d565b92915050565b6000604051905090565b600080fd5b600080fd5b600080fd5b600080fd5b6000601f19601f8301169050919050565b7f4e487b7100000000000000000000000000000000000000000000000000000000600052604160045260246000fd5b61091e826108d5565b810181811067ffffffffffffffff8211171561093d5761093c6108e6565b5b80604052505050565b60006109506108b7565b905061095c8282610915565b919050565b600067ffffffffffffffff82111561097c5761097b6108e6565b5b610985826108d5565b9050602081019050919050565b82818337600083830152505050565b60006109b46109af84610961565b610946565b9050828152602081018484840111156109d0576109cf6108d0565b5b6109db848285610992565b509392505050565b600082601f8301126109f8576109f76108cb565b5b8135610a088482602086016109a1565b91505092915050565b600060208284031215610a2757610a266108c1565b5b600082013567ffffffffffffffff811115610a4557610a446108c6565b5b610a51848285016109e3565b91505092915050565b6000604082019050610a6f6000830185610857565b610a7c6020830184610857565b9392505050565b610a8c8161084d565b8114610a9757600080fd5b50565b600081359050610aa981610a83565b92915050565b60008060408385031215610ac657610ac56108c1565b5b600083013567ffffffffffffffff811115610ae457610ae36108c6565b5b610af0858286016109e3565b9250506020610b0185828601610a9a565b9150509250929050565b600073ffffffffffffffffffffffffffffffffffffffff82169050919050565b6000610b3682610b0b565b9050919050565b610b4681610b2b565b82525050565b6000602082019050610b616000830184610b3d565b92915050565b610b7081610b2b565b8114610b7b57600080fd5b50565b600081359050610b8d81610b67565b92915050565b600060208284031215610ba957610ba86108c1565b5b6000610bb784828501610b7e565b91505092915050565b600081519050919050565b600081905092915050565b60005b83811015610bf4578082015181840152602081019050610bd9565b83811115610c03576000848401525b50505050565b6000610c1482610bc0565b610c1e8185610bcb565b9350610c2e818560208601610bd6565b80840191505092915050565b6000610c468284610c09565b915081905092915050565b7f4e487b7100000000000000000000000000000000000000000000000000000000600052601160045260246000fd5b6000610c8b8261084d565b9150610c968361084d565b9250827fffffffffffffffffffffffffffffffffffffffffffffffffffffffffffffffff03821115610ccb57610cca610c51565b5b828201905092915050565b600082825260208201905092915050565b6000610cf282610bc0565b610cfc8185610cd6565b9350610d0c818560208601610bd6565b610d15816108d5565b840191505092915050565b60006040820190508181036000830152610d3a8185610ce7565b9050610d496020830184610857565b9392505050565b7f547279696e6720746f207769746864726177206d6f7265206d6f6e657920746860008201527f616e2074686520636f6e7472616374206861732e000000000000000000000000602082015250565b6000610dac603483610cd6565b9150610db782610d50565b604082019050919050565b60006020820190508181036000830152610ddb81610d9f565b9050919050565b600081905092915050565b50565b6000610dfd600083610de2565b9150610e0882610ded565b600082019050919050565b6000610e1e82610df0565b9150819050919050565b7f4661696c656420746f207769746864726177206d6f6e65792066726f6d20636f60008201527f6e74726163742e00000000000000000000000000000000000000000000000000602082015250565b6000610e84602783610cd6565b9150610e8f82610e28565b604082019050919050565b60006020820190508181036000830152610eb381610e77565b9050919050565b6000610ec58261084d565b9150610ed08361084d565b925082821015610ee357610ee2610c51565b5b828203905092915050565b7f4f776e61626c653a206e6577206f776e657220697320746865207a65726f206160008201527f6464726573730000000000000000000000000000000000000000000000000000602082015250565b6000610f4a602683610cd6565b9150610f5582610eee565b604082019050919050565b60006020820190508181036000830152610f7981610f3d565b9050919050565b60006020820190508181036000830152610f9a8184610ce7565b905092915050565b7f4f776e61626c653a2063616c6c6572206973206e6f7420746865206f776e6572600082015250565b6000610fd8602083610cd6565b9150610fe382610fa2565b602082019050919050565b6000602082019050818103600083015261100781610fcb565b905091905056fea264697066735822122054ded2f04489e34dd5e39159cbeb6b4577587974ac8fef8a4c64147c2437b44164736f6c6343000809003354686973206973202d616c706861207369746520616e67656c20636f6e74726163742e",
    "linkReferences": {},
    "deployedLinkReferences": {}
}